:020000040800F2
:100000000050002069050008AF050008AD05000894
:10001000AD050008AD050008AD05000800000000B2
:10002000000000000000000000000000AF05000814
:10003000AF05000800000000AF0500082505000816
:10004000AF050008AF050008AF050008AF050008C0
:10005000AF050008AF050008AF050008AF050008B0
:10006000AF050008AF050008AF050008AF050008A0
:10007000AF050008AF050008AF050008AF05000890
:10008000AF050008AF050008AF050008AF05000880
:10009000AF050008AF050008AF050008AF05000870
:1000A000AF050008AF050008AF050008AF05000860
:1000B000AF050008AF050008AF050008AF05000850
:1000C000AF050008AF050008AF050008AF05000840
:1000D000AF050008AF050008AF050008AF05000830
:1000E000AF050008AF050008AF050008AF05000820
:1000F000AF050008AF050008AF050008AF05000810
:10010000AF050008AF050008AF050008AF050008FF
:10011000AF050008AF050008AF050008AF050008EF
:10012000AF050008AF050008AF050008AF050008DF
:1001300000000000AF050008AF050008AF0500088B
:10014000AF050008AF050008AF050008AF050008BF
:1001500070B5047804F07F04212C56D14478013C1A
:10016000052C4ED8DFE804F0034D2319461F0AB1D1
:1001700013880BB9062217E08478C078244B44EA30
:100180000020A3F8080810880968A3F8000812885E
:10019000184601F041FA032206E01E4B1A780A2A9B
:1001A00031D1022201E002221A4B1A702BE0194CC5
:1001B0000E6825784FF00000032D02D0062D06D1E1
:1001C00003E004252570642402E007252570044619
:1001D00030700D686C700C680E4DA0700C682D7836
:1001E000E0700C68257109684871062111800A4A7F
:1001F0001A6008E00B68074901200978197010801F
:1002000070BD002070BD012070BD002070BD00BF1A
:1002100020000020000000201D020008224B70B5C5
:100220001B78042B02D0072B3CD137E01F4D00F088
:10023000EBFAB5F80868DEB9D5F8010000F17843AB
:10024000A3F50053B3F5783F05D330460121BDE84F
:10025000704000F0EFBB2B78212B03D0412B17D13E
:1002600000F00EFB114BD3F80120C3F804280FE077
:10027000D5F80438023E03EBC626002404E0A0199A
:10028000295B00F0E9FA0234B5F800389C42F6DB4D
:1002900000F0C6FA044B05221A7070BDBDE870402C
:1002A00000F05EBB70BD00BF0000002020000020F9
:1002B000C1B104282FD8DFE800F003070B0E1100AE
:1002C00015484FF4807101E01448102100F08DBAF8
:1002D00013480421FAE712482021F7E710484FF4A9
:1002E0000041F3E7042816D8DFE800F003070A0D01
:1002F000100009484FF480710BE00848102108E015
:100300000748042105E00648202102E004484FF494
:10031000004100F068BA704700080140000C01403D
:100320000010014008B5134B1A68920708D11B68EA
:1003300003F00C03082B03D10F4B1B68DB0716D50A
:1003400010210E4800F080F9022201230021094803
:1003500000F012FA0121074800F045FA0121054892
:1003600000F045FAD0F1010038BF002008BD01209F
:1003700008BD00BF001001400810014018100240E5
:1003800030B5124A0023995CC1540133072BFAD1CE
:1003900020230F4A0F4CC3710146034615782D09DF
:1003A00030350D7212F8015B05F00F0530354D72D6
:1003B0000231A242F2D10022197A392901D907313A
:1003C000197201320133182AF6D130BDF01F00082E
:1003D000E8F7FF1FF4F7FF1F08B5FFF7A3FF80B989
:1003E0003B4A3C4B11680B40B3F1005F09D13A4BDB
:1003F0004FF400511960136883F30888374B1B686A
:100400009847374B1B68990710D000F0FDF9354B22
:1004100000221A6000F04EFA334845F6A52100F09C
:1004200063FA32484FF47F7100F05EFA00F060F931
:100430002F484FF4805100F007F92E481D2100F09D
:1004400003F92D48032100224FF4807300F094F942
:100450002A4803210022102300F08EF9284B294856
:100460001A68032142F080721A60002248F22403C5
:1004700000F082F920484FF4807100F0B4F91F4871
:10048000102100F0B0F948F224011E4800F0ABF949
:10049000002000F04BFA1C4800F040FA00F050FA3F
:1004A00000F056FA1948FFF76BFF1949194A1A4B21
:1004B0001A4800F05DFA4FF4006000F077FA21204E
:1004C0007F21174A00F066FB00F076FAFCE700BFD8
:1004D000002000080000FE2F08ED00E004200008C6
:1004E000202002401020024000F8FF1F08F8FF1FE4
:1004F000141002401810024000080140000C014096
:100500000400014000100140A0BB0D002C08002099
:100510003C1600084E160008040000204017000892
:100520005101000810B50F4C2068042807DD092888
:1005300001DC053809E00E2803DCC0F10E000121C2
:1005400004E0132804DCC0F113000021FFF7B0FE23
:1005500023680133142B236002D1024B00221A605E
:1005600010BD00BF4C0800200B4B83F308880B4BD9
:100570000B490C4AC91A02E0585843F8040B93423D
:10058000FAD302E043F8042B01E0074900228B4232
:10059000F8D3FFF721BF00BF00500020000000206B
:1005A0006C1700082000002034110020FEE770477F
:1005B00004281CD8DFE800F003080D1217000C4BCC
:1005C0001A689101FCD57047094B1A689203FCD553
:1005D0007047074B1A689007FCD57047054B1A689F
:1005E0009107FCD57047044B1A689207FCD57047F9
:1005F00000100240201002402410024004281BD8A2
:10060000DFE800F003080D0F15000C4B1A6842F0EC
:1006100080720AE0094B1A6842F4803205E0074B09
:1006200000E0074B1A6842F001021A607047054B60
:100630001A6842F001021A60704700BF00100240C1
:10064000201002402410024003680B4303607047EF
:10065000034B1A6822F0030202431A60704700BF7E
:1006600004100240034B1A6822F4701242EA8042DE
:100670001A60704704100240034B1A6822F480325B
:1006800042EA00421A60704704100240034B1A68A5
:1006900022F4003242EA40421A60704704100240DD
:1006A000034B1A6822F4404242EA80321A607047D3
:1006B00004100240034B1A6822F4605242EAC0223E
:1006C0001A60704704100240034B1A6822F4E0627B
:1006D00042EA00221A60704704100240034B1A6875
:1006E00022F0F00242EA00121A6070470410024041
:1006F00008B50220FFF782FF0220FFF759FF002014
:10070000FFF7A6FF0120FFF779FF0120FFF750FF59
:100710000120FFF79DFF0020FFF7E0FF0220FFF719
:10072000BFFF0420FFF7D0FF0020FFF7C3FF022028
:1007300000F060F80420FFF795FF0120FFF79CFF11
:100740000020FFF7A3FF0020FFF758FF0020FFF76E
:100750002FFF0220FFF77CFF034A044B1A60044A74
:10076000044B1A6008BD00BF00512502180000208C
:1007700000A24A041C0000202DE9F04F0768002564
:1007800046682C464FF00F0B43FA04FC1CF0010F97
:1007900020D01FFA84F8B8F1070F05D9A5F1200C75
:1007A0001FFA8CFCB14601E0AC46B9460BFA0CFAD4
:1007B00029EA0A090CF1020A02FA0AFA01FA0CFC07
:1007C0004AEA0C0C4CEA0909B8F1070F98BF4F46EA
:1007D00088BF4E4601340435102CADB2D4D1076029
:1007E0004660BDE8F08F0161704781827047806884
:1007F00008407047034B1A6822F0070202431A6050
:10080000704700BF00200240034B044A1A6002F107
:1008100088321A60704700BF0420024023016745F8
:10082000024B1A6842F080021A60704710200240A2
:10083000034B044A1A6002F188321A60704700BF05
:100840000820024023016745024B1A68D207FCD4F6
:10085000704700BF0C20024070B5084D04460E469C
:10086000FFF7F2FF2B6843F001032B602680FFF7B0
:10087000EBFF2B6823F001032B6070BD10200240BA
:1008800038B50A4C0546FFF7DFFF236843F0020343
:100890002360074B1D60236843F040032360FFF78C
:1008A000D3FF236823F00203236038BD10200240E9
:1008B0001420024010B50B4CFFF7C6FF23689905C2
:1008C00001D4FFF7B5FF236843F0200323602368BA
:1008D00043F040032360FFF7B7FF236823F02003B2
:1008E000236010BD1020024070B50B4D04460E462B
:1008F000FFF7AAFF2B68980501D4FFF799FF2B6833
:1009000043F010032B602680FFF79EFF2B6823F037
:1009100010032B6070BD00BF10200240024B20F07E
:100920007F401860704700BF14E000E0012804D841
:10093000024B1A6842EA80001860704710E000E03D
:10094000024B1A6842F002021A60704710E000E0A1
:10095000024B1A6842F001021A60704710E000E092
:10096000014A024B1A6070470400FA050CED00E0E2
:1009700010B5094C84E80E00084BC4F8AC00E360E5
:100980008023238203689847054B00202365054B8D
:10099000E364054BA36410BD500800203209002019
:1009A000C50B0008290C0008B10C0008014B188287
:1009B000704700BF5008002008B5034BD3F8AC3097
:1009C0005B6A984708BD00BF5008002010B5034C73
:1009D000D4F8AC40A468A04710BD00BF5008002068
:1009E00038B50024084D2046214640222346AC74E9
:1009F000EC74FFF7EBFFD5F8AC3020465B68984706
:100A0000AB6903B1984738BD5008002008B5034BC7
:100A1000D3F8AC30DB69984708BD00BF5008002010
:100A200008B5034BD3F8AC301B6A984708BD00BF2C
:100A30005008002008B5034BD3F8AC301B69984729
:100A400008BD00BF5008002008B5034BD3F8AC30F8
:100A50009B69984708BD00BF5008002038B50F4D6E
:100A60000F4C2B680020DA79238AE1689A420CD275
:100A7000FFF7CCFF022323702B68E268DB79D218E2
:100A8000E260228AD31A238238BD1A46FFF7BEFFDE
:100A90000323237000232382E36038BD5008002025
:100AA0000009002038B5104C0020E279257A238A0D
:100AB00042EA05250D4AED1A1268E168D279C91893
:100AC0009542A8BF1546ADB22A46FFF7A9FFA84236
:100AD00006D000200121FFF7ADFF4FF0FF3038BDF9
:100AE000238AC318238238BD000900205008002043
:100AF000F8B5134D134F0024621D55F8326005EB15
:100B0000C20396B1587979781A7900EA01039A42BA
:100B100008D10D4800F10B0100F10F0200F11303A1
:100B2000B04758B90134042CE6D1074800F10B0155
:100B300000F10F02BDE8F84000F01CBBF8BD00BF9B
:100B40005008002000090020010900200F4B10B5BB
:100B5000DB680F4CE360227AE37943EA02232382C5
:100B6000FFF7C6FF60B1208A18B1BDE81040FFF75B
:100B700075BF01460246FFF749FF0423237010BDED
:100B80000121BDE81040FFF755BF00BF500800200D
:100B90000009002070B50A4C00232646A56A35B12D
:100BA00001330834042BF9D14FF0FF3070BD053309
:100BB00006EBC3042071617146F83320284670BDEE
:100BC0005008002038B5164C0025611C0822284624
:100BD0006561FFF725FF082810D1E379227A53EAEF
:100BE000022203D094F90130002B03DABDE838402B
:100BF000FFF7ACBF0B4B198A914205D22846012161
:100C0000BDE83840FFF716BFD9681B68E160258250
:100C1000DB79934201D2052300E00623237038BD1F
:100C2000000900205008002010B51F4C2378062B27
:100C300014D0072B21D0052B2ED1FFF733FF00282E
:100C400030DBE379227A43EA0222238AD21A174B55
:100C50001B68DB799A4225DC06230CE0FFF722FFB4
:100C600000281FDBFFF744FFB8B100200146024611
:100C7000FFF7CCFE0423237010BD0020014602467E
:100C8000FFF7CEFE0023237063690BB1601C984709
:100C9000054B00225A6110BD00200121BDE8104023
:100CA000FFF7C8BE10BD00BF00090020500800209B
:100CB000144B10B51A781C46032A07D0042A07D013
:100CC000022A19D1BDE81040FFF7C8BE072211E083
:100CD0005B690BB1601C984763780A4A43B9937803
:100CE000052B05D1084BD078D3F8AC305B6898471A
:100CF000044B00221A7010BD00200121BDE81040F5
:100D0000FFF798BE00090020500800201388012B2F
:100D100001D901231380034A0B68D27C01201A7089
:100D2000704700BF500800208378C17853EA012340
:100D300002D11380012070470020704701200B680A
:100D4000108000221A7070471388022B01D90223E9
:100D500013800A68002313700A68012053707047DB
:100D60001388022B01D9022313800A680023137011
:100D70000A6801205370704738B513880C46022B5F
:100D800001D90223138000792568FFF75DFE00304A
:100D900018BF01202870236800225A70012038BD36
:100DA00008B501210079FFF745FE012008BD08B50F
:100DB00000210079FFF73EFE012008BD08B5037849
:100DC0008BB98278C17842EA01227F2A0DD8094B7B
:100DD0009A74D3F8AC30084A934208D180785B68A3
:100DE0009847012008BD002008BD184608BD012015
:100DF00008BD00BF500800204017000838B50E4C51
:100E0000C2788378054643EA0223E27C9A4211D0F5
:100E1000E374D4F8AC30DB689847D4F8A8304BB111
:100E20000022A2622263A2632264AA78E87842EADE
:100E300000209847012038BD500800202DE9F04FD0
:100E4000837890F80390044643EA09294FEA192071
:100E5000022889B00D46924612D0032800F0008186
:100E6000012840F03D81A04B1A680A601B68BAF85F
:100E700000201B789A4238BF1346AAF8003030E1B0
:100E8000994B1788D9680D225FFA89F902FB09F995
:100E900029605C68039114F8095004EB0906AF421D
:100EA00038BF3D4608462A46314600F0B5FB039B55
:100EB0007F1B03EB05080023BFB214F809900493CD
:100EC000CDF818A0BFE004990C234B430593B27AE8
:100ED000737A43EA0223F27A43EA0243327B43EA1B
:100EE0000263059A9B18D3F804A0BAF1000F13D03F
:100EF0009AF800404046A74238BF3C465146224639
:100F000000F08AFB9AF800303F1B65199944A04411
:100F1000BFB2ADB21FFA89F94FF0000C7FE0152186
:100F200001FB0CF3D2F808B040461BF803A00BEB12
:100F30000304574538BFBA46524621460293CDF8BE
:100F400004C000F069FB029BD0441BF803B0CAEB5D
:100F50000707637CAA44A57CA27B43EA0525E37CC2
:100F6000BFB245EA0345237D217C45EA0365637BE7
:100F7000AF42B8BF3D4643EA0223E27BADB243EA4B
:100F8000024340462A4643EA016100F045FB637C88
:100F9000A27C1FFA8AFA43EA02235B447F1BA8441F
:100FA00099445544BFB2ADB21FFA89F94FF0000B16
:100FB00007962AE0637A94F80AA0072243EA0A2AED
:100FC000E37A40464AEA034A237B4AEA036A02FB81
:100FD0000BF31AF803600AEB0301B74238BF3E4631
:100FE00032460293CDF804C000F016FB029BBF1BF3
:100FF0001AF80330751999440BF1010BB044BFB2D4
:10100000ADB21FFA89F91FFA8BFB2379DDF804C012
:101010005B45CFD80CF10103079E1FFA83FCB27A1F
:10102000737A059943EA0223F27A43EA0243327B58
:1010300043EA02635A185B589C45FFF670AF049A66
:10104000531C9BB20493337904998B423FF63BAF18
:10105000DDF818A0039BA3F80290AAF800503BE02B
:10106000214BDE689B68002B38D0194600225FFABE
:1010700089F904E051F8040B002832D001324A45C6
:10108000F8DD53F8290000F0D0FA013003234000C6
:10109000307073702E60BAF8002033789A4238BFEF
:1010A0001346AAF80030104B9968002308E051F865
:1010B0002220D05C06EB430290700020D0700133F8
:1010C000BAF800205208013A9342A278EFDB1AB92D
:1010D0000923B3700423F370012002E0184600E0F6
:1010E000002009B0BDE8F08F5008002010B543780B
:1010F000092B05D8044C54F823301BB1984710BD78
:10110000002010BD184610BD1817000810B5437810
:101110000B2B05D8044C54F823301BB1984710BD55
:10112000002010BD184610BDE816000810B5437821
:10113000012B03D011D3032B0DD105E08378C478A4
:1011400053EA04240BD004E08378C47853EA0424DF
:1011500007D0002010BD002010BD034B02E0034B60
:1011600000E0034B984710BD790D0008AF0D000853
:10117000A10D0008037813F0600F0DD103F01F03D9
:10118000012B05D0022B05D0002B05D1FFF7AEBFF8
:10119000FFF7BCBFFFF7CABF002070471D4B0222FC
:1011A0001A6053F8082C42F0800243F8082C5A6A5F
:1011B00042F410225A62184A1368002B164BFBDACD
:1011C0001A6842F001021A601A6812F00102FBD19B
:1011D000124B196841F0804141F470511960104B75
:1011E000196841F003011960C3F800260D4A8023F5
:1011F00013600D4A13800D4B1A6842F001021A6009
:101200000B4A1A610B4B0F221A60012243F80C2C77
:10121000704700BF14000050100000500C00005038
:101220000008005024000050300900200800005041
:10123000182804801C080050034B1A6822F4FE6230
:1012400042EA00121A60704700080050F0B510F032
:101250007F0433D13F2A404B01D91C6009E01F2A8B
:1012600001D9012104E00F2A01D9022100E0032164
:1012700019603A4902F07F030B6051F8100C43F0FB
:10128000005340F0084041F8100C354943F4002366
:101290000B60344992080B60334B196841F00841E8
:1012A00019601104314B41F080011960304B1988ED
:1012B000521892B21A802F4B1A80F0BD00F08000B5
:1012C000C0B248B32A489608058804F1A05745EAF9
:1012D000064C751905804037600102F07F0500F16A
:1012E000A040BF00C7F800C0A605C0F8105904F11F
:1012F0002070483046EA8141400141F018410568BC
:1013000041F400410A432A43026023B31A4A0C21E4
:1013100001FB0424A364F0BD02F07F00104D40F4F3
:10132000002045F82400650105F1A045C5F8100B23
:1013300004F120705830400142EA8142056842F0D1
:10134000144242F400422A43026023B10A4A0C21AB
:1013500001FB0424E364F0BD0009005010090050B3
:1013600018090020100B0050000B005028000050FE
:10137000300900202A09002050080020024B1A885A
:10138000024B1A80704700BF2A0900203009002054
:1013900000F07F00430103F1A04310B5D3F81049DA
:1013A00014F4002F19D142F40024C3F8104900F1BD
:1013B000207348335B011C68013044F0044400038F
:1013C0001C6000F1A0408B1803E051F8044B40F87A
:1013D000044B5C1A002CF8DC00E00022104610BD23
:1013E0003A4B2DE9F0411C68A20409D54FF4005294
:1013F0001A60374B80221A80BDE8F041FFF7F0BA3F
:10140000E00631D5334B1B6803F4F012B2F5802FA0
:1014100002D0B2F5402F57D12F4903F00F05C3F387
:101420000A130B80B2F5402F14BF012202224FF4A1
:101430007A7300BF013BFCD1032303FB0522274B3A
:10144000123253F822300BB128469847224A013510
:101450002D03118805F1A045002301E0286804331D
:101460008B42FBDB002313801C4F1D4E00254FF0E9
:1014700001083368D90705D5BB6C0BB1E8B29847B2
:10148000C6F80080013520360C37042DF1D1220535
:1014900007D5124BDB6903B198470C4B4FF4006240
:1014A0001A60002C07DA0D4B1B6A03B19847074BF3
:1014B0004FF000421A60230706D5084B5B6A03B160
:1014C0009847024B08221A60BDE8F08114000050D2
:1014D000300900202000005028090020500800207A
:1014E000080900501C4B37B504461888824234BFA7
:1014F00015460546401B1880631C1B0303F1A043DF
:10150000002004E053F8042B043841F8042B42195E
:10151000032AF7DC3AB1186802AB43F8040D084619
:10152000194600F079F80D4A630152F8242003F1BE
:10153000A043C3F8102B04F12073094A58335B0110
:10154000125D1968002A0CBF4FF004424FF00842A8
:101550000A431A6028463EBD2809002018090020C9
:101560002C09002040B9114B1A6811B142F4001245
:1015700001E022F400121A60030605D500F07F0096
:1015800000F12070483002E000F120705830400136
:10159000036811B143F4001305E023F40013036062
:1015A000036843F080530360704700BF0009005098
:1015B000020609D500F07F0000F12070483040019C
:1015C0000068C0F34050704700F12070583040016F
:1015D0000068C0F34050704703060ED4074B1954FF
:1015E00000F1207058304001036819B143F00063E6
:1015F0000360704743F08063036070472C0900204C
:10160000044B1A6810B142F0020201E022F002021B
:101610001A6070470408005010B5002302E0CC5C4B
:10162000C45401339342FAD110BD034613F8012B81
:10163000002AFBD1181A013870470000120100027D
:1016400000000040501D0F6000010102030109026B
:101650000000010100C0325C16000800010000001B
:1016600000000000681600080904000000FE0102E6
:1016700004000000007D160008090000000921098F
:10168000FF0000081A0178005472616E7369746972
:101690006F6E20526F626F7469637320496E632EA0
:1016A000004C6973612F4D20285570677261646525
:1016B000292056312E300040496E7465726E616C7F
:1016C00020466C6173682020202F3078303830300D
:1016D000303030302F342A3030324B612C313234BC
:1016E0002A3030324B670000610D00080000000016
:1016F00000000000000000000000000000000000EA
:1017000000000000000000000000000000000000D9
:101710003D0D0008290D0008490D000800000000DB
:10172000000000000000000000000000BD0D0008E7
:101730003D0E0008000000000D0D0008FD0D000822
:101740009D110008391200084D1200087D13000891
:1017500065150008D9150008B11500089113000897
:0C176000E5140008E11300080116000861
:10176C00020000008616000888160008A116000862
:10177C002C080020B716000800127A0000127A001C
:081FF0004E53455249414C00DB
:040000050800056981
:00000001FF
